{
  "_format": "hh-sol-artifact-1",
  "contractName": "TwitterContract",
  "sourceName": "contracts/TwitterContract.sol",
  "abi": [
    {
      "anonymous": false,
      "inputs": [
        {
          "indexed": false,
          "internalType": "address",
          "name": "recipient",
          "type": "address"
        },
        {
          "indexed": false,
          "internalType": "uint256",
          "name": "tweetId",
          "type": "uint256"
        }
      ],
      "name": "AddTweet",
      "type": "event"
    },
    {
      "anonymous": false,
      "inputs": [
        {
          "indexed": false,
          "internalType": "uint256",
          "name": "tweetId",
          "type": "uint256"
        },
        {
          "indexed": false,
          "internalType": "bool",
          "name": "isDeleted",
          "type": "bool"
        }
      ],
      "name": "DeleteTweet",
      "type": "event"
    },
    {
      "anonymous": false,
      "inputs": [
        {
          "indexed": false,
          "internalType": "address",
          "name": "sender",
          "type": "address"
        },
        {
          "indexed": false,
          "internalType": "address",
          "name": "recipient",
          "type": "address"
        },
        {
          "indexed": false,
          "internalType": "uint256",
          "name": "amount",
          "type": "uint256"
        }
      ],
      "name": "PaymentTweet",
      "type": "event"
    },
    {
      "inputs": [
        {
          "internalType": "string",
          "name": "tweetText",
          "type": "string"
        },
        {
          "internalType": "bool",
          "name": "isDeleted",
          "type": "bool"
        }
      ],
      "name": "addTweet",
      "outputs": [],
      "stateMutability": "nonpayable",
      "type": "function"
    },
    {
      "inputs": [
        {
          "internalType": "uint256",
          "name": "tweetId",
          "type": "uint256"
        },
        {
          "internalType": "bool",
          "name": "isDeleted",
          "type": "bool"
        }
      ],
      "name": "deleteTweet",
      "outputs": [],
      "stateMutability": "nonpayable",
      "type": "function"
    },
    {
      "inputs": [],
      "name": "getAccountExists",
      "outputs": [
        {
          "internalType": "bool",
          "name": "",
          "type": "bool"
        }
      ],
      "stateMutability": "view",
      "type": "function"
    },
    {
      "inputs": [],
      "name": "getAllTweets",
      "outputs": [
        {
          "components": [
            {
              "internalType": "uint256",
              "name": "id",
              "type": "uint256"
            },
            {
              "internalType": "address",
              "name": "username",
              "type": "address"
            },
            {
              "internalType": "string",
              "name": "tweetText",
              "type": "string"
            },
            {
              "internalType": "bool",
              "name": "isDeleted",
              "type": "bool"
            }
          ],
          "internalType": "struct TwitterContract.Tweet[]",
          "name": "",
          "type": "tuple[]"
        }
      ],
      "stateMutability": "view",
      "type": "function"
    },
    {
      "inputs": [],
      "name": "getBalance",
      "outputs": [
        {
          "internalType": "uint256",
          "name": "",
          "type": "uint256"
        }
      ],
      "stateMutability": "view",
      "type": "function"
    },
    {
      "inputs": [],
      "name": "getMyTweets",
      "outputs": [
        {
          "components": [
            {
              "internalType": "uint256",
              "name": "id",
              "type": "uint256"
            },
            {
              "internalType": "address",
              "name": "username",
              "type": "address"
            },
            {
              "internalType": "string",
              "name": "tweetText",
              "type": "string"
            },
            {
              "internalType": "bool",
              "name": "isDeleted",
              "type": "bool"
            }
          ],
          "internalType": "struct TwitterContract.Tweet[]",
          "name": "",
          "type": "tuple[]"
        }
      ],
      "stateMutability": "view",
      "type": "function"
    },
    {
      "inputs": [
        {
          "internalType": "address",
          "name": "recipient",
          "type": "address"
        },
        {
          "internalType": "uint256",
          "name": "amount",
          "type": "uint256"
        }
      ],
      "name": "paymentTweet",
      "outputs": [],
      "stateMutability": "nonpayable",
      "type": "function"
    },
    {
      "inputs": [],
      "name": "setInitialBalance",
      "outputs": [],
      "stateMutability": "nonpayable",
      "type": "function"
    }
  ],
  "bytecode": "0x608060405234801561001057600080fd5b50611798806100206000396000f3fe608060405234801561001057600080fd5b50600436106100885760003560e01c8063b99833271161005b578063b998332714610105578063e580339f1461010f578063f0312a371461012b578063f43c7c011461014757610088565b806312065fe01461008d57806353256135146100ab5780638288e207146100c9578063aefedbc2146100e7575b600080fd5b610095610163565b6040516100a29190611396565b60405180910390f35b6100b36101aa565b6040516100c09190611339565b60405180910390f35b6100d1610596565b6040516100de919061135b565b60405180910390f35b6100ef6105ea565b6040516100fc9190611339565b60405180910390f35b61010d610a40565b005b610129600480360381019061012491906110a7565b610adf565b005b610145600480360381019061014091906110fb565b610c6c565b005b610161600480360381019061015c919061106b565b610d74565b005b6000600260003373ffffffffffffffffffffffffffffffffffffffff1673ffffffffffffffffffffffffffffffffffffffff16815260200190815260200160002054905090565b60606000808054905067ffffffffffffffff8111156101f2577f4e487b7100000000000000000000000000000000000000000000000000000000600052604160045260246000fd5b60405190808252806020026020018201604052801561022b57816020015b610218610ee1565b8152602001906001900390816102105790505b5090506000805b60008054905081101561046a57600015156000828154811061027d577f4e487b7100000000000000000000000000000000000000000000000000000000600052603260045260246000fd5b906000526020600020906004020160030160009054906101000a900460ff161515141561045757600081815481106102de577f4e487b7100000000000000000000000000000000000000000000000000000000600052603260045260246000fd5b9060005260206000209060040201604051806080016040529081600082015481526020016001820160009054906101000a900473ffffffffffffffffffffffffffffffffffffffff1673ffffffffffffffffffffffffffffffffffffffff1673ffffffffffffffffffffffffffffffffffffffff168152602001600282018054610367906115aa565b80601f0160208091040260200160405190810160405280929190818152602001828054610393906115aa565b80156103e05780601f106103b5576101008083540402835291602001916103e0565b820191906000526020600020905b8154815290600101906020018083116103c357829003601f168201915b505050505081526020016003820160009054906101000a900460ff16151515158152505083838151811061043d577f4e487b7100000000000000000000000000000000000000000000000000000000600052603260045260246000fd5b602002602001018190525081806104539061160d565b9250505b80806104629061160d565b915050610232565b5060008167ffffffffffffffff8111156104ad577f4e487b7100000000000000000000000000000000000000000000000000000000600052604160045260246000fd5b6040519080825280602002602001820160405280156104e657816020015b6104d3610ee1565b8152602001906001900390816104cb5790505b50905060005b8281101561058c5783818151811061052d577f4e487b7100000000000000000000000000000000000000000000000000000000600052603260045260246000fd5b602002602001015182828151811061056e577f4e487b7100000000000000000000000000000000000000000000000000000000600052603260045260246000fd5b602002602001018190525080806105849061160d565b9150506104ec565b5080935050505090565b6000600360003373ffffffffffffffffffffffffffffffffffffffff1673ffffffffffffffffffffffffffffffffffffffff16815260200190815260200160002060009054906101000a900460ff16905090565b60606000808054905067ffffffffffffffff811115610632577f4e487b7100000000000000000000000000000000000000000000000000000000600052604160045260246000fd5b60405190808252806020026020018201604052801561066b57816020015b610658610ee1565b8152602001906001900390816106505790505b5090506000805b600080549050811015610914573373ffffffffffffffffffffffffffffffffffffffff166001600083815260200190815260200160002060009054906101000a900473ffffffffffffffffffffffffffffffffffffffff1673ffffffffffffffffffffffffffffffffffffffff1614801561074957506000151560008281548110610726577f4e487b7100000000000000000000000000000000000000000000000000000000600052603260045260246000fd5b906000526020600020906004020160030160009054906101000a900460ff161515145b156109015760008181548110610788577f4e487b7100000000000000000000000000000000000000000000000000000000600052603260045260246000fd5b9060005260206000209060040201604051806080016040529081600082015481526020016001820160009054906101000a900473ffffffffffffffffffffffffffffffffffffffff1673ffffffffffffffffffffffffffffffffffffffff1673ffffffffffffffffffffffffffffffffffffffff168152602001600282018054610811906115aa565b80601f016020809104026020016040519081016040528092919081815260200182805461083d906115aa565b801561088a5780601f1061085f5761010080835404028352916020019161088a565b820191906000526020600020905b81548152906001019060200180831161086d57829003601f168201915b505050505081526020016003820160009054906101000a900460ff1615151515815250508383815181106108e7577f4e487b7100000000000000000000000000000000000000000000000000000000600052603260045260246000fd5b602002602001018190525081806108fd9061160d565b9250505b808061090c9061160d565b915050610672565b5060008167ffffffffffffffff811115610957577f4e487b7100000000000000000000000000000000000000000000000000000000600052604160045260246000fd5b60405190808252806020026020018201604052801561099057816020015b61097d610ee1565b8152602001906001900390816109755790505b50905060005b82811015610a36578381815181106109d7577f4e487b7100000000000000000000000000000000000000000000000000000000600052603260045260246000fd5b6020026020010151828281518110610a18577f4e487b7100000000000000000000000000000000000000000000000000000000600052603260045260246000fd5b60200260200101819052508080610a2e9061160d565b915050610996565b5080935050505090565b6001600360003373ffffffffffffffffffffffffffffffffffffffff1673ffffffffffffffffffffffffffffffffffffffff16815260200190815260200160002060006101000a81548160ff0219169083151502179055506064600260003373ffffffffffffffffffffffffffffffffffffffff1673ffffffffffffffffffffffffffffffffffffffff16815260200190815260200160002081905550565b600080805490509050600060405180608001604052808381526020013373ffffffffffffffffffffffffffffffffffffffff16815260200185815260200184151581525090806001815401808255809150506001900390600052602060002090600402016000909190919091506000820151816000015560208201518160010160006101000a81548173ffffffffffffffffffffffffffffffffffffffff021916908373ffffffffffffffffffffffffffffffffffffffff1602179055506040820151816002019080519060200190610bb9929190610f21565b5060608201518160030160006101000a81548160ff0219169083151502179055505050336001600083815260200190815260200160002060006101000a81548173ffffffffffffffffffffffffffffffffffffffff021916908373ffffffffffffffffffffffffffffffffffffffff1602179055507f8b2db9b424f26463510ef5b02c16f2465836b52081b51d2112ec76102053bdea3382604051610c5f929190611310565b60405180910390a1505050565b3373ffffffffffffffffffffffffffffffffffffffff166001600084815260200190815260200160002060009054906101000a900473ffffffffffffffffffffffffffffffffffffffff1673ffffffffffffffffffffffffffffffffffffffff161415610d70578060008381548110610d0e577f4e487b7100000000000000000000000000000000000000000000000000000000600052603260045260246000fd5b906000526020600020906004020160030160006101000a81548160ff0219169083151502179055507f2430f837dd2fb40e08c064be9db3d0cf2a7a21f8fe716a2a41787dafc66a7e2a8282604051610d679291906113b1565b60405180910390a15b5050565b600260003373ffffffffffffffffffffffffffffffffffffffff1673ffffffffffffffffffffffffffffffffffffffff16815260200190815260200160002054811115610df6576040517f08c379a0000000000000000000000000000000000000000000000000000000008152600401610ded90611376565b60405180910390fd5b80600260003373ffffffffffffffffffffffffffffffffffffffff1673ffffffffffffffffffffffffffffffffffffffff1681526020019081526020016000206000828254610e4591906114ec565b9250508190555080600260008473ffffffffffffffffffffffffffffffffffffffff1673ffffffffffffffffffffffffffffffffffffffff1681526020019081526020016000206000828254610e9b9190611496565b925050819055507f4a385d770df0ebc71a6366ee30873276935437dd9865f8c0e7104d97497e9728338383604051610ed5939291906112d9565b60405180910390a15050565b604051806080016040528060008152602001600073ffffffffffffffffffffffffffffffffffffffff168152602001606081526020016000151581525090565b828054610f2d906115aa565b90600052602060002090601f016020900481019282610f4f5760008555610f96565b82601f10610f6857805160ff1916838001178555610f96565b82800160010185558215610f96579182015b82811115610f95578251825591602001919060010190610f7a565b5b509050610fa39190610fa7565b5090565b5b80821115610fc0576000816000905550600101610fa8565b5090565b6000610fd7610fd2846113ff565b6113da565b905082815260208101848484011115610fef57600080fd5b610ffa848285611568565b509392505050565b6000813590506110118161171d565b92915050565b60008135905061102681611734565b92915050565b600082601f83011261103d57600080fd5b813561104d848260208601610fc4565b91505092915050565b6000813590506110658161174b565b92915050565b6000806040838503121561107e57600080fd5b600061108c85828601611002565b925050602061109d85828601611056565b9150509250929050565b600080604083850312156110ba57600080fd5b600083013567ffffffffffffffff8111156110d457600080fd5b6110e08582860161102c565b92505060206110f185828601611017565b9150509250929050565b6000806040838503121561110e57600080fd5b600061111c85828601611056565b925050602061112d85828601611017565b9150509250929050565b60006111438383611258565b905092915050565b61115481611520565b82525050565b61116381611520565b82525050565b600061117482611440565b61117e8185611463565b93508360208202850161119085611430565b8060005b858110156111cc57848403895281516111ad8582611137565b94506111b883611456565b925060208a01995050600181019050611194565b50829750879550505050505092915050565b6111e781611532565b82525050565b6111f681611532565b82525050565b60006112078261144b565b6112118185611474565b9350611221818560208601611577565b61122a816116e3565b840191505092915050565b6000611242601483611485565b915061124d826116f4565b602082019050919050565b600060808301600083015161127060008601826112bb565b506020830151611283602086018261114b565b506040830151848203604086015261129b82826111fc565b91505060608301516112b060608601826111de565b508091505092915050565b6112c48161155e565b82525050565b6112d38161155e565b82525050565b60006060820190506112ee600083018661115a565b6112fb602083018561115a565b61130860408301846112ca565b949350505050565b6000604082019050611325600083018561115a565b61133260208301846112ca565b9392505050565b600060208201905081810360008301526113538184611169565b905092915050565b600060208201905061137060008301846111ed565b92915050565b6000602082019050818103600083015261138f81611235565b9050919050565b60006020820190506113ab60008301846112ca565b92915050565b60006040820190506113c660008301856112ca565b6113d360208301846111ed565b9392505050565b60006113e46113f5565b90506113f082826115dc565b919050565b6000604051905090565b600067ffffffffffffffff82111561141a576114196116b4565b5b611423826116e3565b9050602081019050919050565b6000819050602082019050919050565b600081519050919050565b600081519050919050565b6000602082019050919050565b600082825260208201905092915050565b600082825260208201905092915050565b600082825260208201905092915050565b60006114a18261155e565b91506114ac8361155e565b9250827fffffffffffffffffffffffffffffffffffffffffffffffffffffffffffffffff038211156114e1576114e0611656565b5b828201905092915050565b60006114f78261155e565b91506115028361155e565b92508282101561151557611514611656565b5b828203905092915050565b600061152b8261153e565b9050919050565b60008115159050919050565b600073ffffffffffffffffffffffffffffffffffffffff82169050919050565b6000819050919050565b82818337600083830152505050565b60005b8381101561159557808201518184015260208101905061157a565b838111156115a4576000848401525b50505050565b600060028204905060018216806115c257607f821691505b602082108114156115d6576115d5611685565b5b50919050565b6115e5826116e3565b810181811067ffffffffffffffff82111715611604576116036116b4565b5b80604052505050565b60006116188261155e565b91507fffffffffffffffffffffffffffffffffffffffffffffffffffffffffffffffff82141561164b5761164a611656565b5b600182019050919050565b7f4e487b7100000000000000000000000000000000000000000000000000000000600052601160045260246000fd5b7f4e487b7100000000000000000000000000000000000000000000000000000000600052602260045260246000fd5b7f4e487b7100000000000000000000000000000000000000000000000000000000600052604160045260246000fd5b6000601f19601f8301169050919050565b7f496e73756666696369656e742062616c616e6365000000000000000000000000600082015250565b61172681611520565b811461173157600080fd5b50565b61173d81611532565b811461174857600080fd5b50565b6117548161155e565b811461175f57600080fd5b5056fea26469706673582212209e2d8016c69eacc0ce1cc4d95fa4dd778bd2b1f31b1efcadf4ec6ec39e16179464736f6c63430008040033",
  "linkReferences": {},
  "deployedLinkReferences": {}
}