{
  "_format": "hh-sol-artifact-1",
  "contractName": "TwitterContract",
  "sourceName": "contracts/TwitterContract.sol",
  "abi": [
    {
      "anonymous": false,
      "inputs": [
        {
          "indexed": false,
          "internalType": "address",
          "name": "creator",
          "type": "address"
        },
        {
          "indexed": false,
          "internalType": "uint256",
          "name": "tweetId",
          "type": "uint256"
        }
      ],
      "name": "AddTweet",
      "type": "event"
    },
    {
      "anonymous": false,
      "inputs": [
        {
          "indexed": false,
          "internalType": "uint256",
          "name": "tweetId",
          "type": "uint256"
        },
        {
          "indexed": false,
          "internalType": "bool",
          "name": "isDeleted",
          "type": "bool"
        }
      ],
      "name": "DeleteTweet",
      "type": "event"
    },
    {
      "anonymous": false,
      "inputs": [
        {
          "indexed": false,
          "internalType": "uint256",
          "name": "tweetId",
          "type": "uint256"
        },
        {
          "indexed": false,
          "internalType": "uint256",
          "name": "likesNum",
          "type": "uint256"
        }
      ],
      "name": "LikeTweet",
      "type": "event"
    },
    {
      "anonymous": false,
      "inputs": [
        {
          "indexed": false,
          "internalType": "address",
          "name": "sender",
          "type": "address"
        },
        {
          "indexed": false,
          "internalType": "address",
          "name": "recipient",
          "type": "address"
        },
        {
          "indexed": false,
          "internalType": "uint256",
          "name": "amount",
          "type": "uint256"
        }
      ],
      "name": "PaymentTweet",
      "type": "event"
    },
    {
      "anonymous": false,
      "inputs": [
        {
          "indexed": false,
          "internalType": "address",
          "name": "recipient",
          "type": "address"
        },
        {
          "indexed": false,
          "internalType": "uint256",
          "name": "replyTweetId",
          "type": "uint256"
        }
      ],
      "name": "ReplyTweet",
      "type": "event"
    },
    {
      "inputs": [
        {
          "internalType": "address",
          "name": "userToFollow",
          "type": "address"
        }
      ],
      "name": "addFollow",
      "outputs": [],
      "stateMutability": "nonpayable",
      "type": "function"
    },
    {
      "inputs": [
        {
          "internalType": "string",
          "name": "tweetText",
          "type": "string"
        },
        {
          "internalType": "bool",
          "name": "isDeleted",
          "type": "bool"
        }
      ],
      "name": "addTweet",
      "outputs": [],
      "stateMutability": "nonpayable",
      "type": "function"
    },
    {
      "inputs": [
        {
          "internalType": "uint256",
          "name": "tweetId",
          "type": "uint256"
        },
        {
          "internalType": "bool",
          "name": "isDeleted",
          "type": "bool"
        }
      ],
      "name": "deleteTweet",
      "outputs": [],
      "stateMutability": "nonpayable",
      "type": "function"
    },
    {
      "inputs": [],
      "name": "getAccountExists",
      "outputs": [
        {
          "internalType": "bool",
          "name": "",
          "type": "bool"
        }
      ],
      "stateMutability": "view",
      "type": "function"
    },
    {
      "inputs": [],
      "name": "getAllTweets",
      "outputs": [
        {
          "components": [
            {
              "internalType": "uint256",
              "name": "id",
              "type": "uint256"
            },
            {
              "internalType": "address",
              "name": "username",
              "type": "address"
            },
            {
              "internalType": "string",
              "name": "tweetText",
              "type": "string"
            },
            {
              "internalType": "bool",
              "name": "isDeleted",
              "type": "bool"
            },
            {
              "internalType": "bool",
              "name": "isReply",
              "type": "bool"
            },
            {
              "internalType": "uint256",
              "name": "replyId",
              "type": "uint256"
            },
            {
              "internalType": "uint256",
              "name": "likes",
              "type": "uint256"
            },
            {
              "internalType": "uint256",
              "name": "replies",
              "type": "uint256"
            },
            {
              "internalType": "address[]",
              "name": "usersLiked",
              "type": "address[]"
            }
          ],
          "internalType": "struct TwitterContract.Tweet[]",
          "name": "",
          "type": "tuple[]"
        }
      ],
      "stateMutability": "view",
      "type": "function"
    },
    {
      "inputs": [],
      "name": "getBalance",
      "outputs": [
        {
          "internalType": "uint256",
          "name": "",
          "type": "uint256"
        }
      ],
      "stateMutability": "view",
      "type": "function"
    },
    {
      "inputs": [],
      "name": "getDisplayName",
      "outputs": [
        {
          "internalType": "string",
          "name": "",
          "type": "string"
        }
      ],
      "stateMutability": "view",
      "type": "function"
    },
    {
      "inputs": [],
      "name": "getFollows",
      "outputs": [
        {
          "components": [
            {
              "internalType": "address",
              "name": "username",
              "type": "address"
            },
            {
              "internalType": "string",
              "name": "displayName",
              "type": "string"
            }
          ],
          "internalType": "struct TwitterContract.User[]",
          "name": "",
          "type": "tuple[]"
        }
      ],
      "stateMutability": "view",
      "type": "function"
    },
    {
      "inputs": [],
      "name": "getMyTweets",
      "outputs": [
        {
          "components": [
            {
              "internalType": "uint256",
              "name": "id",
              "type": "uint256"
            },
            {
              "internalType": "address",
              "name": "username",
              "type": "address"
            },
            {
              "internalType": "string",
              "name": "tweetText",
              "type": "string"
            },
            {
              "internalType": "bool",
              "name": "isDeleted",
              "type": "bool"
            },
            {
              "internalType": "bool",
              "name": "isReply",
              "type": "bool"
            },
            {
              "internalType": "uint256",
              "name": "replyId",
              "type": "uint256"
            },
            {
              "internalType": "uint256",
              "name": "likes",
              "type": "uint256"
            },
            {
              "internalType": "uint256",
              "name": "replies",
              "type": "uint256"
            },
            {
              "internalType": "address[]",
              "name": "usersLiked",
              "type": "address[]"
            }
          ],
          "internalType": "struct TwitterContract.Tweet[]",
          "name": "",
          "type": "tuple[]"
        }
      ],
      "stateMutability": "view",
      "type": "function"
    },
    {
      "inputs": [
        {
          "internalType": "uint256",
          "name": "tweetId",
          "type": "uint256"
        }
      ],
      "name": "likeTweet",
      "outputs": [],
      "stateMutability": "nonpayable",
      "type": "function"
    },
    {
      "inputs": [
        {
          "internalType": "address",
          "name": "recipient",
          "type": "address"
        },
        {
          "internalType": "uint256",
          "name": "amount",
          "type": "uint256"
        }
      ],
      "name": "paymentTweet",
      "outputs": [],
      "stateMutability": "nonpayable",
      "type": "function"
    },
    {
      "inputs": [
        {
          "internalType": "string",
          "name": "tweetText",
          "type": "string"
        },
        {
          "internalType": "uint256",
          "name": "tweetId",
          "type": "uint256"
        }
      ],
      "name": "replyTweet",
      "outputs": [],
      "stateMutability": "nonpayable",
      "type": "function"
    },
    {
      "inputs": [
        {
          "internalType": "string",
          "name": "displayName",
          "type": "string"
        }
      ],
      "name": "setDisplayName",
      "outputs": [],
      "stateMutability": "nonpayable",
      "type": "function"
    },
    {
      "inputs": [],
      "name": "setInitialBalance",
      "outputs": [],
      "stateMutability": "nonpayable",
      "type": "function"
    }
  ],
  "bytecode": "0x608060405234801561001057600080fd5b50612f97806100206000396000f3fe608060405234801561001057600080fd5b50600436106100ea5760003560e01c806391e330851161008c578063b998332711610066578063b998332714610213578063e580339f1461021d578063f0312a3714610239578063f43c7c0114610255576100ea565b806391e33085146101bb578063a120734b146101d7578063aefedbc2146101f5576100ea565b80634f58ea8c116100c85780634f58ea8c1461014757806353256135146101635780635ffc6ceb146101815780638288e2071461019d576100ea565b806312065fe0146100ef57806336ec35aa1461010d578063376e8f291461012b575b600080fd5b6100f7610271565b6040516101049190612afa565b60405180910390f35b6101156102b8565b6040516101229190612ab8565b60405180910390f35b610145600480360381019061014091906124c6565b610387565b005b610161600480360381019061015c91906125c0565b6104fb565b005b61016b61086f565b6040516101789190612a59565b60405180910390f35b61019b60048036038101906101969190612614565b610d23565b005b6101a56113cb565b6040516101b29190612a9d565b60405180910390f35b6101d560048036038101906101d0919061252b565b61141f565b005b6101df611476565b6040516101ec9190612a7b565b60405180910390f35b6101fd6117a8565b60405161020a9190612a59565b60405180910390f35b61021b611cc6565b005b6102376004803603810190610232919061256c565b611d65565b005b610253600480360381019061024e919061263d565b611fe7565b005b61026f600480360381019061026a91906124ef565b6120ef565b005b6000600260003373ffffffffffffffffffffffffffffffffffffffff1673ffffffffffffffffffffffffffffffffffffffff16815260200190815260200160002054905090565b6060600560003373ffffffffffffffffffffffffffffffffffffffff1673ffffffffffffffffffffffffffffffffffffffff168152602001908152602001600020805461030490612da9565b80601f016020809104026020016040519081016040528092919081815260200182805461033090612da9565b801561037d5780601f106103525761010080835404028352916020019161037d565b820191906000526020600020905b81548152906001019060200180831161036057829003601f168201915b5050505050905090565b600080600360003373ffffffffffffffffffffffffffffffffffffffff1673ffffffffffffffffffffffffffffffffffffffff168152602001908152602001600020905060005b818054905081101561048d578373ffffffffffffffffffffffffffffffffffffffff1682828154811061042a577f4e487b7100000000000000000000000000000000000000000000000000000000600052603260045260246000fd5b9060005260206000200160009054906101000a900473ffffffffffffffffffffffffffffffffffffffff1673ffffffffffffffffffffffffffffffffffffffff16141561047a576001925061048d565b808061048590612e0c565b9150506103ce565b50816104f65780839080600181540180825580915050600190039060005260206000200160009091909190916101000a81548173ffffffffffffffffffffffffffffffffffffffff021916908373ffffffffffffffffffffffffffffffffffffffff1602179055505b505050565b60008080549050905060008067ffffffffffffffff811115610546577f4e487b7100000000000000000000000000000000000000000000000000000000600052604160045260246000fd5b6040519080825280602002602001820160405280156105745781602001602082028036833780820191505090505b50905060006040518061012001604052808481526020013373ffffffffffffffffffffffffffffffffffffffff16815260200186815260200160001515815260200160011515815260200185815260200160008152602001600081526020018381525090806001815401808255809150506001900390600052602060002090600802016000909190919091506000820151816000015560208201518160010160006101000a81548173ffffffffffffffffffffffffffffffffffffffff021916908373ffffffffffffffffffffffffffffffffffffffff160217905550604082015181600201908051906020019061066d92919061225c565b5060608201518160030160006101000a81548160ff02191690831515021790555060808201518160030160016101000a81548160ff02191690831515021790555060a0820151816004015560c0820151816005015560e082015181600601556101008201518160070190805190602001906106e99291906122e2565b505050336001600084815260200190815260200160002060006101000a81548173ffffffffffffffffffffffffffffffffffffffff021916908373ffffffffffffffffffffffffffffffffffffffff16021790555060016000848154811061077a577f4e487b7100000000000000000000000000000000000000000000000000000000600052603260045260246000fd5b9060005260206000209060080201600601546107969190612c95565b600084815481106107d0577f4e487b7100000000000000000000000000000000000000000000000000000000600052603260045260246000fd5b9060005260206000209060080201600601819055507f24359b2aa9889e8898cf2908cf9cce157169a0b9ab4f7d16338dbd02a2fc54973360008581548110610841577f4e487b7100000000000000000000000000000000000000000000000000000000600052603260045260246000fd5b906000526020600020906008020160060154604051610861929190612a30565b60405180910390a150505050565b60606000808054905067ffffffffffffffff8111156108b7577f4e487b7100000000000000000000000000000000000000000000000000000000600052604160045260246000fd5b6040519080825280602002602001820160405280156108f057816020015b6108dd61236c565b8152602001906001900390816108d55790505b5090506000805b600080549050811015610bf7576000151560008281548110610942577f4e487b7100000000000000000000000000000000000000000000000000000000600052603260045260246000fd5b906000526020600020906008020160030160009054906101000a900460ff1615151415610be457600081815481106109a3577f4e487b7100000000000000000000000000000000000000000000000000000000600052603260045260246000fd5b906000526020600020906008020160405180610120016040529081600082015481526020016001820160009054906101000a900473ffffffffffffffffffffffffffffffffffffffff1673ffffffffffffffffffffffffffffffffffffffff1673ffffffffffffffffffffffffffffffffffffffff168152602001600282018054610a2d90612da9565b80601f0160208091040260200160405190810160405280929190818152602001828054610a5990612da9565b8015610aa65780601f10610a7b57610100808354040283529160200191610aa6565b820191906000526020600020905b815481529060010190602001808311610a8957829003601f168201915b505050505081526020016003820160009054906101000a900460ff161515151581526020016003820160019054906101000a900460ff1615151515815260200160048201548152602001600582015481526020016006820154815260200160078201805480602002602001604051908101604052809291908181526020018280548015610b8857602002820191906000526020600020905b8160009054906101000a900473ffffffffffffffffffffffffffffffffffffffff1673ffffffffffffffffffffffffffffffffffffffff1681526020019060010190808311610b3e575b505050505081525050838381518110610bca577f4e487b7100000000000000000000000000000000000000000000000000000000600052603260045260246000fd5b60200260200101819052508180610be090612e0c565b9250505b8080610bef90612e0c565b9150506108f7565b5060008167ffffffffffffffff811115610c3a577f4e487b7100000000000000000000000000000000000000000000000000000000600052604160045260246000fd5b604051908082528060200260200182016040528015610c7357816020015b610c6061236c565b815260200190600190039081610c585790505b50905060005b82811015610d1957838181518110610cba577f4e487b7100000000000000000000000000000000000000000000000000000000600052603260045260246000fd5b6020026020010151828281518110610cfb577f4e487b7100000000000000000000000000000000000000000000000000000000600052603260045260246000fd5b60200260200101819052508080610d1190612e0c565b915050610c79565b5080935050505090565b600080808381548110610d5f577f4e487b7100000000000000000000000000000000000000000000000000000000600052603260045260246000fd5b906000526020600020906008020160070180549050905060005b818110156111e7573373ffffffffffffffffffffffffffffffffffffffff1660008581548110610dd2577f4e487b7100000000000000000000000000000000000000000000000000000000600052603260045260246000fd5b90600052602060002090600802016007018281548110610e1b577f4e487b7100000000000000000000000000000000000000000000000000000000600052603260045260246000fd5b9060005260206000200160009054906101000a900473ffffffffffffffffffffffffffffffffffffffff1673ffffffffffffffffffffffffffffffffffffffff1614156111d4576001925060008481548110610ea0577f4e487b7100000000000000000000000000000000000000000000000000000000600052603260045260246000fd5b9060005260206000209060080201600701600183610ebe9190612ceb565b81548110610ef5577f4e487b7100000000000000000000000000000000000000000000000000000000600052603260045260246000fd5b9060005260206000200160009054906101000a900473ffffffffffffffffffffffffffffffffffffffff1660008581548110610f5a577f4e487b7100000000000000000000000000000000000000000000000000000000600052603260045260246000fd5b90600052602060002090600802016007018281548110610fa3577f4e487b7100000000000000000000000000000000000000000000000000000000600052603260045260246000fd5b9060005260206000200160006101000a81548173ffffffffffffffffffffffffffffffffffffffff021916908373ffffffffffffffffffffffffffffffffffffffff16021790555060008481548110611025577f4e487b7100000000000000000000000000000000000000000000000000000000600052603260045260246000fd5b906000526020600020906008020160070180548061106c577f4e487b7100000000000000000000000000000000000000000000000000000000600052603160045260246000fd5b6001900381819060005260206000200160006101000a81549073ffffffffffffffffffffffffffffffffffffffff021916905590556001600085815481106110dd577f4e487b7100000000000000000000000000000000000000000000000000000000600052603260045260246000fd5b9060005260206000209060080201600501546110f99190612ceb565b60008581548110611133577f4e487b7100000000000000000000000000000000000000000000000000000000600052603260045260246000fd5b9060005260206000209060080201600501819055507fce95d00b5d978b6c1ea0db3dea02ad6b73bd5f44eaf3626d9c7c30dedbca696684600086815481106111a4577f4e487b7100000000000000000000000000000000000000000000000000000000600052603260045260246000fd5b9060005260206000209060080201600501546040516111c4929190612b3e565b60405180910390a15050506113c8565b80806111df90612e0c565b915050610d79565b50816113c55760008381548110611227577f4e487b7100000000000000000000000000000000000000000000000000000000600052603260045260246000fd5b9060005260206000209060080201600701339080600181540180825580915050600190039060005260206000200160009091909190916101000a81548173ffffffffffffffffffffffffffffffffffffffff021916908373ffffffffffffffffffffffffffffffffffffffff1602179055506001600084815481106112d5577f4e487b7100000000000000000000000000000000000000000000000000000000600052603260045260246000fd5b9060005260206000209060080201600501546112f19190612c95565b6000848154811061132b577f4e487b7100000000000000000000000000000000000000000000000000000000600052603260045260246000fd5b9060005260206000209060080201600501819055507fce95d00b5d978b6c1ea0db3dea02ad6b73bd5f44eaf3626d9c7c30dedbca6966836000858154811061139c577f4e487b7100000000000000000000000000000000000000000000000000000000600052603260045260246000fd5b9060005260206000209060080201600501546040516113bc929190612b3e565b60405180910390a15b50505b50565b6000600460003373ffffffffffffffffffffffffffffffffffffffff1673ffffffffffffffffffffffffffffffffffffffff16815260200190815260200160002060009054906101000a900460ff16905090565b80600560003373ffffffffffffffffffffffffffffffffffffffff1673ffffffffffffffffffffffffffffffffffffffff168152602001908152602001600020908051906020019061147292919061225c565b5050565b60606000600360003373ffffffffffffffffffffffffffffffffffffffff1673ffffffffffffffffffffffffffffffffffffffff16815260200190815260200160002080548060200260200160405190810160405280929190818152602001828054801561153957602002820191906000526020600020905b8160009054906101000a900473ffffffffffffffffffffffffffffffffffffffff1673ffffffffffffffffffffffffffffffffffffffff16815260200190600101908083116114ef575b5050505050905060008151905060008167ffffffffffffffff811115611588577f4e487b7100000000000000000000000000000000000000000000000000000000600052604160045260246000fd5b6040519080825280602002602001820160405280156115c157816020015b6115ae6123d2565b8152602001906001900390816115a65790505b50905060005b8281101561179e5760006040518060400160405280868481518110611615577f4e487b7100000000000000000000000000000000000000000000000000000000600052603260045260246000fd5b602002602001015173ffffffffffffffffffffffffffffffffffffffff16815260200160056000888681518110611675577f4e487b7100000000000000000000000000000000000000000000000000000000600052603260045260246000fd5b602002602001015173ffffffffffffffffffffffffffffffffffffffff1673ffffffffffffffffffffffffffffffffffffffff16815260200190815260200160002080546116c290612da9565b80601f01602080910402602001604051908101604052809291908181526020018280546116ee90612da9565b801561173b5780601f106117105761010080835404028352916020019161173b565b820191906000526020600020905b81548152906001019060200180831161171e57829003601f168201915b505050505081525090508083838151811061177f577f4e487b7100000000000000000000000000000000000000000000000000000000600052603260045260246000fd5b602002602001018190525050808061179690612e0c565b9150506115c7565b5080935050505090565b60606000808054905067ffffffffffffffff8111156117f0577f4e487b7100000000000000000000000000000000000000000000000000000000600052604160045260246000fd5b60405190808252806020026020018201604052801561182957816020015b61181661236c565b81526020019060019003908161180e5790505b5090506000805b600080549050811015611b9a573373ffffffffffffffffffffffffffffffffffffffff166001600083815260200190815260200160002060009054906101000a900473ffffffffffffffffffffffffffffffffffffffff1673ffffffffffffffffffffffffffffffffffffffff16148015611907575060001515600082815481106118e4577f4e487b7100000000000000000000000000000000000000000000000000000000600052603260045260246000fd5b906000526020600020906008020160030160009054906101000a900460ff161515145b15611b875760008181548110611946577f4e487b7100000000000000000000000000000000000000000000000000000000600052603260045260246000fd5b906000526020600020906008020160405180610120016040529081600082015481526020016001820160009054906101000a900473ffffffffffffffffffffffffffffffffffffffff1673ffffffffffffffffffffffffffffffffffffffff1673ffffffffffffffffffffffffffffffffffffffff1681526020016002820180546119d090612da9565b80601f01602080910402602001604051908101604052809291908181526020018280546119fc90612da9565b8015611a495780601f10611a1e57610100808354040283529160200191611a49565b820191906000526020600020905b815481529060010190602001808311611a2c57829003601f168201915b505050505081526020016003820160009054906101000a900460ff161515151581526020016003820160019054906101000a900460ff1615151515815260200160048201548152602001600582015481526020016006820154815260200160078201805480602002602001604051908101604052809291908181526020018280548015611b2b57602002820191906000526020600020905b8160009054906101000a900473ffffffffffffffffffffffffffffffffffffffff1673ffffffffffffffffffffffffffffffffffffffff1681526020019060010190808311611ae1575b505050505081525050838381518110611b6d577f4e487b7100000000000000000000000000000000000000000000000000000000600052603260045260246000fd5b60200260200101819052508180611b8390612e0c565b9250505b8080611b9290612e0c565b915050611830565b5060008167ffffffffffffffff811115611bdd577f4e487b7100000000000000000000000000000000000000000000000000000000600052604160045260246000fd5b604051908082528060200260200182016040528015611c1657816020015b611c0361236c565b815260200190600190039081611bfb5790505b50905060005b82811015611cbc57838181518110611c5d577f4e487b7100000000000000000000000000000000000000000000000000000000600052603260045260246000fd5b6020026020010151828281518110611c9e577f4e487b7100000000000000000000000000000000000000000000000000000000600052603260045260246000fd5b60200260200101819052508080611cb490612e0c565b915050611c1c565b5080935050505090565b6001600460003373ffffffffffffffffffffffffffffffffffffffff1673ffffffffffffffffffffffffffffffffffffffff16815260200190815260200160002060006101000a81548160ff0219169083151502179055506064600260003373ffffffffffffffffffffffffffffffffffffffff1673ffffffffffffffffffffffffffffffffffffffff16815260200190815260200160002081905550565b60008080549050905060008067ffffffffffffffff811115611db0577f4e487b7100000000000000000000000000000000000000000000000000000000600052604160045260246000fd5b604051908082528060200260200182016040528015611dde5781602001602082028036833780820191505090505b50905060006040518061012001604052808481526020013373ffffffffffffffffffffffffffffffffffffffff16815260200186815260200185151581526020016000151581526020016000815260200160008152602001600081526020018381525090806001815401808255809150506001900390600052602060002090600802016000909190919091506000820151816000015560208201518160010160006101000a81548173ffffffffffffffffffffffffffffffffffffffff021916908373ffffffffffffffffffffffffffffffffffffffff1602179055506040820151816002019080519060200190611ed792919061225c565b5060608201518160030160006101000a81548160ff02191690831515021790555060808201518160030160016101000a81548160ff02191690831515021790555060a0820151816004015560c0820151816005015560e08201518160060155610100820151816007019080519060200190611f539291906122e2565b505050336001600084815260200190815260200160002060006101000a81548173ffffffffffffffffffffffffffffffffffffffff021916908373ffffffffffffffffffffffffffffffffffffffff1602179055507f8b2db9b424f26463510ef5b02c16f2465836b52081b51d2112ec76102053bdea3383604051611fd9929190612a30565b60405180910390a150505050565b3373ffffffffffffffffffffffffffffffffffffffff166001600084815260200190815260200160002060009054906101000a900473ffffffffffffffffffffffffffffffffffffffff1673ffffffffffffffffffffffffffffffffffffffff1614156120eb578060008381548110612089577f4e487b7100000000000000000000000000000000000000000000000000000000600052603260045260246000fd5b906000526020600020906008020160030160006101000a81548160ff0219169083151502179055507f2430f837dd2fb40e08c064be9db3d0cf2a7a21f8fe716a2a41787dafc66a7e2a82826040516120e2929190612b15565b60405180910390a15b5050565b600260003373ffffffffffffffffffffffffffffffffffffffff1673ffffffffffffffffffffffffffffffffffffffff16815260200190815260200160002054811115612171576040517f08c379a000000000000000000000000000000000000000000000000000000000815260040161216890612ada565b60405180910390fd5b80600260003373ffffffffffffffffffffffffffffffffffffffff1673ffffffffffffffffffffffffffffffffffffffff16815260200190815260200160002060008282546121c09190612ceb565b9250508190555080600260008473ffffffffffffffffffffffffffffffffffffffff1673ffffffffffffffffffffffffffffffffffffffff16815260200190815260200160002060008282546122169190612c95565b925050819055507f4a385d770df0ebc71a6366ee30873276935437dd9865f8c0e7104d97497e9728338383604051612250939291906129f9565b60405180910390a15050565b82805461226890612da9565b90600052602060002090601f01602090048101928261228a57600085556122d1565b82601f106122a357805160ff19168380011785556122d1565b828001600101855582156122d1579182015b828111156122d05782518255916020019190600101906122b5565b5b5090506122de9190612402565b5090565b82805482825590600052602060002090810192821561235b579160200282015b8281111561235a5782518260006101000a81548173ffffffffffffffffffffffffffffffffffffffff021916908373ffffffffffffffffffffffffffffffffffffffff16021790555091602001919060010190612302565b5b5090506123689190612402565b5090565b60405180610120016040528060008152602001600073ffffffffffffffffffffffffffffffffffffffff16815260200160608152602001600015158152602001600015158152602001600081526020016000815260200160008152602001606081525090565b6040518060400160405280600073ffffffffffffffffffffffffffffffffffffffff168152602001606081525090565b5b8082111561241b576000816000905550600101612403565b5090565b600061243261242d84612b8c565b612b67565b90508281526020810184848401111561244a57600080fd5b612455848285612d67565b509392505050565b60008135905061246c81612f1c565b92915050565b60008135905061248181612f33565b92915050565b600082601f83011261249857600080fd5b81356124a884826020860161241f565b91505092915050565b6000813590506124c081612f4a565b92915050565b6000602082840312156124d857600080fd5b60006124e68482850161245d565b91505092915050565b6000806040838503121561250257600080fd5b60006125108582860161245d565b9250506020612521858286016124b1565b9150509250929050565b60006020828403121561253d57600080fd5b600082013567ffffffffffffffff81111561255757600080fd5b61256384828501612487565b91505092915050565b6000806040838503121561257f57600080fd5b600083013567ffffffffffffffff81111561259957600080fd5b6125a585828601612487565b92505060206125b685828601612472565b9150509250929050565b600080604083850312156125d357600080fd5b600083013567ffffffffffffffff8111156125ed57600080fd5b6125f985828601612487565b925050602061260a858286016124b1565b9150509250929050565b60006020828403121561262657600080fd5b6000612634848285016124b1565b91505092915050565b6000806040838503121561265057600080fd5b600061265e858286016124b1565b925050602061266f85828601612472565b9150509250929050565b600061268583836126b9565b60208301905092915050565b600061269d83836128d2565b905092915050565b60006126b1838361299e565b905092915050565b6126c281612d1f565b82525050565b6126d181612d1f565b82525050565b60006126e282612bed565b6126ec8185612c40565b93506126f783612bbd565b8060005b8381101561272857815161270f8882612679565b975061271a83612c19565b9250506001810190506126fb565b5085935050505092915050565b600061274082612bf8565b61274a8185612c51565b93508360208202850161275c85612bcd565b8060005b8581101561279857848403895281516127798582612691565b945061278483612c26565b925060208a01995050600181019050612760565b50829750879550505050505092915050565b60006127b582612c03565b6127bf8185612c62565b9350836020820285016127d185612bdd565b8060005b8581101561280d57848403895281516127ee85826126a5565b94506127f983612c33565b925060208a019950506001810190506127d5565b50829750879550505050505092915050565b61282881612d31565b82525050565b61283781612d31565b82525050565b600061284882612c0e565b6128528185612c73565b9350612862818560208601612d76565b61286b81612ee2565b840191505092915050565b600061288182612c0e565b61288b8185612c84565b935061289b818560208601612d76565b6128a481612ee2565b840191505092915050565b60006128bc601483612c84565b91506128c782612ef3565b602082019050919050565b6000610120830160008301516128eb60008601826129db565b5060208301516128fe60208601826126b9565b5060408301518482036040860152612916828261283d565b915050606083015161292b606086018261281f565b50608083015161293e608086018261281f565b5060a083015161295160a08601826129db565b5060c083015161296460c08601826129db565b5060e083015161297760e08601826129db565b5061010083015184820361010086015261299182826126d7565b9150508091505092915050565b60006040830160008301516129b660008601826126b9565b50602083015184820360208601526129ce828261283d565b9150508091505092915050565b6129e481612d5d565b82525050565b6129f381612d5d565b82525050565b6000606082019050612a0e60008301866126c8565b612a1b60208301856126c8565b612a2860408301846129ea565b949350505050565b6000604082019050612a4560008301856126c8565b612a5260208301846129ea565b9392505050565b60006020820190508181036000830152612a738184612735565b905092915050565b60006020820190508181036000830152612a9581846127aa565b905092915050565b6000602082019050612ab2600083018461282e565b92915050565b60006020820190508181036000830152612ad28184612876565b905092915050565b60006020820190508181036000830152612af3816128af565b9050919050565b6000602082019050612b0f60008301846129ea565b92915050565b6000604082019050612b2a60008301856129ea565b612b37602083018461282e565b9392505050565b6000604082019050612b5360008301856129ea565b612b6060208301846129ea565b9392505050565b6000612b71612b82565b9050612b7d8282612ddb565b919050565b6000604051905090565b600067ffffffffffffffff821115612ba757612ba6612eb3565b5b612bb082612ee2565b9050602081019050919050565b6000819050602082019050919050565b6000819050602082019050919050565b6000819050602082019050919050565b600081519050919050565b600081519050919050565b600081519050919050565b600081519050919050565b6000602082019050919050565b6000602082019050919050565b6000602082019050919050565b600082825260208201905092915050565b600082825260208201905092915050565b600082825260208201905092915050565b600082825260208201905092915050565b600082825260208201905092915050565b6000612ca082612d5d565b9150612cab83612d5d565b9250827fffffffffffffffffffffffffffffffffffffffffffffffffffffffffffffffff03821115612ce057612cdf612e55565b5b828201905092915050565b6000612cf682612d5d565b9150612d0183612d5d565b925082821015612d1457612d13612e55565b5b828203905092915050565b6000612d2a82612d3d565b9050919050565b60008115159050919050565b600073ffffffffffffffffffffffffffffffffffffffff82169050919050565b6000819050919050565b82818337600083830152505050565b60005b83811015612d94578082015181840152602081019050612d79565b83811115612da3576000848401525b50505050565b60006002820490506001821680612dc157607f821691505b60208210811415612dd557612dd4612e84565b5b50919050565b612de482612ee2565b810181811067ffffffffffffffff82111715612e0357612e02612eb3565b5b80604052505050565b6000612e1782612d5d565b91507fffffffffffffffffffffffffffffffffffffffffffffffffffffffffffffffff821415612e4a57612e49612e55565b5b600182019050919050565b7f4e487b7100000000000000000000000000000000000000000000000000000000600052601160045260246000fd5b7f4e487b7100000000000000000000000000000000000000000000000000000000600052602260045260246000fd5b7f4e487b7100000000000000000000000000000000000000000000000000000000600052604160045260246000fd5b6000601f19601f8301169050919050565b7f496e73756666696369656e742062616c616e6365000000000000000000000000600082015250565b612f2581612d1f565b8114612f3057600080fd5b50565b612f3c81612d31565b8114612f4757600080fd5b50565b612f5381612d5d565b8114612f5e57600080fd5b5056fea2646970667358221220ac0f6ad0f94bec4138e6836d9b181e9da851a2d32a60e92a30838b957185212764736f6c63430008040033",
  "linkReferences": {},
  "deployedLinkReferences": {}
}