{
  "_format": "hh-sol-artifact-1",
  "contractName": "TwitterContract",
  "sourceName": "contracts/TwitterContract.sol",
  "abi": [
    {
      "anonymous": false,
      "inputs": [
        {
          "indexed": false,
          "internalType": "address",
          "name": "creator",
          "type": "address"
        },
        {
          "indexed": false,
          "internalType": "uint256",
          "name": "tweetId",
          "type": "uint256"
        }
      ],
      "name": "AddTweet",
      "type": "event"
    },
    {
      "anonymous": false,
      "inputs": [
        {
          "indexed": false,
          "internalType": "uint256",
          "name": "tweetId",
          "type": "uint256"
        },
        {
          "indexed": false,
          "internalType": "bool",
          "name": "isDeleted",
          "type": "bool"
        }
      ],
      "name": "DeleteTweet",
      "type": "event"
    },
    {
      "anonymous": false,
      "inputs": [
        {
          "indexed": false,
          "internalType": "address",
          "name": "recipient",
          "type": "address"
        }
      ],
      "name": "Follow",
      "type": "event"
    },
    {
      "anonymous": false,
      "inputs": [
        {
          "indexed": false,
          "internalType": "uint256",
          "name": "tweetId",
          "type": "uint256"
        },
        {
          "indexed": false,
          "internalType": "uint256",
          "name": "likesNum",
          "type": "uint256"
        }
      ],
      "name": "LikeTweet",
      "type": "event"
    },
    {
      "anonymous": false,
      "inputs": [
        {
          "indexed": false,
          "internalType": "address",
          "name": "sender",
          "type": "address"
        },
        {
          "indexed": false,
          "internalType": "address",
          "name": "recipient",
          "type": "address"
        },
        {
          "indexed": false,
          "internalType": "uint256",
          "name": "amount",
          "type": "uint256"
        }
      ],
      "name": "PaymentTweet",
      "type": "event"
    },
    {
      "anonymous": false,
      "inputs": [
        {
          "indexed": false,
          "internalType": "address",
          "name": "recipient",
          "type": "address"
        },
        {
          "indexed": false,
          "internalType": "uint256",
          "name": "replyTweetId",
          "type": "uint256"
        }
      ],
      "name": "ReplyTweet",
      "type": "event"
    },
    {
      "anonymous": false,
      "inputs": [
        {
          "indexed": false,
          "internalType": "uint256",
          "name": "tweetId",
          "type": "uint256"
        },
        {
          "indexed": false,
          "internalType": "uint256",
          "name": "likesNum",
          "type": "uint256"
        }
      ],
      "name": "UnLikeTweet",
      "type": "event"
    },
    {
      "anonymous": false,
      "inputs": [
        {
          "indexed": false,
          "internalType": "address",
          "name": "recipient",
          "type": "address"
        }
      ],
      "name": "Unfollow",
      "type": "event"
    },
    {
      "inputs": [
        {
          "internalType": "string",
          "name": "tweetText",
          "type": "string"
        },
        {
          "internalType": "bool",
          "name": "isDeleted",
          "type": "bool"
        }
      ],
      "name": "addTweet",
      "outputs": [],
      "stateMutability": "nonpayable",
      "type": "function"
    },
    {
      "inputs": [
        {
          "internalType": "uint256",
          "name": "tweetId",
          "type": "uint256"
        },
        {
          "internalType": "bool",
          "name": "isDeleted",
          "type": "bool"
        }
      ],
      "name": "deleteTweet",
      "outputs": [],
      "stateMutability": "nonpayable",
      "type": "function"
    },
    {
      "inputs": [],
      "name": "getAccountExists",
      "outputs": [
        {
          "internalType": "bool",
          "name": "",
          "type": "bool"
        }
      ],
      "stateMutability": "view",
      "type": "function"
    },
    {
      "inputs": [],
      "name": "getAllTweets",
      "outputs": [
        {
          "components": [
            {
              "internalType": "uint256",
              "name": "id",
              "type": "uint256"
            },
            {
              "internalType": "address",
              "name": "username",
              "type": "address"
            },
            {
              "internalType": "string",
              "name": "tweetText",
              "type": "string"
            },
            {
              "internalType": "bool",
              "name": "isDeleted",
              "type": "bool"
            },
            {
              "internalType": "bool",
              "name": "isReply",
              "type": "bool"
            },
            {
              "internalType": "uint256",
              "name": "replyId",
              "type": "uint256"
            },
            {
              "internalType": "uint256",
              "name": "likes",
              "type": "uint256"
            },
            {
              "internalType": "uint256",
              "name": "replies",
              "type": "uint256"
            },
            {
              "internalType": "address[]",
              "name": "usersLiked",
              "type": "address[]"
            }
          ],
          "internalType": "struct TwitterContract.Tweet[]",
          "name": "",
          "type": "tuple[]"
        }
      ],
      "stateMutability": "view",
      "type": "function"
    },
    {
      "inputs": [],
      "name": "getBalance",
      "outputs": [
        {
          "internalType": "uint256",
          "name": "",
          "type": "uint256"
        }
      ],
      "stateMutability": "view",
      "type": "function"
    },
    {
      "inputs": [],
      "name": "getDisplayName",
      "outputs": [
        {
          "internalType": "string",
          "name": "",
          "type": "string"
        }
      ],
      "stateMutability": "view",
      "type": "function"
    },
    {
      "inputs": [],
      "name": "getFollows",
      "outputs": [
        {
          "components": [
            {
              "internalType": "address",
              "name": "username",
              "type": "address"
            },
            {
              "internalType": "string",
              "name": "displayName",
              "type": "string"
            }
          ],
          "internalType": "struct TwitterContract.User[]",
          "name": "",
          "type": "tuple[]"
        }
      ],
      "stateMutability": "view",
      "type": "function"
    },
    {
      "inputs": [],
      "name": "getMyTweets",
      "outputs": [
        {
          "components": [
            {
              "internalType": "uint256",
              "name": "id",
              "type": "uint256"
            },
            {
              "internalType": "address",
              "name": "username",
              "type": "address"
            },
            {
              "internalType": "string",
              "name": "tweetText",
              "type": "string"
            },
            {
              "internalType": "bool",
              "name": "isDeleted",
              "type": "bool"
            },
            {
              "internalType": "bool",
              "name": "isReply",
              "type": "bool"
            },
            {
              "internalType": "uint256",
              "name": "replyId",
              "type": "uint256"
            },
            {
              "internalType": "uint256",
              "name": "likes",
              "type": "uint256"
            },
            {
              "internalType": "uint256",
              "name": "replies",
              "type": "uint256"
            },
            {
              "internalType": "address[]",
              "name": "usersLiked",
              "type": "address[]"
            }
          ],
          "internalType": "struct TwitterContract.Tweet[]",
          "name": "",
          "type": "tuple[]"
        }
      ],
      "stateMutability": "view",
      "type": "function"
    },
    {
      "inputs": [
        {
          "internalType": "uint256",
          "name": "tweetId",
          "type": "uint256"
        }
      ],
      "name": "likeTweet",
      "outputs": [],
      "stateMutability": "nonpayable",
      "type": "function"
    },
    {
      "inputs": [
        {
          "internalType": "address",
          "name": "recipient",
          "type": "address"
        },
        {
          "internalType": "uint256",
          "name": "amount",
          "type": "uint256"
        }
      ],
      "name": "paymentTweet",
      "outputs": [],
      "stateMutability": "nonpayable",
      "type": "function"
    },
    {
      "inputs": [
        {
          "internalType": "string",
          "name": "tweetText",
          "type": "string"
        },
        {
          "internalType": "uint256",
          "name": "tweetId",
          "type": "uint256"
        }
      ],
      "name": "replyTweet",
      "outputs": [],
      "stateMutability": "nonpayable",
      "type": "function"
    },
    {
      "inputs": [
        {
          "internalType": "string",
          "name": "displayName",
          "type": "string"
        }
      ],
      "name": "setDisplayName",
      "outputs": [],
      "stateMutability": "nonpayable",
      "type": "function"
    },
    {
      "inputs": [],
      "name": "setInitialBalance",
      "outputs": [],
      "stateMutability": "nonpayable",
      "type": "function"
    },
    {
      "inputs": [
        {
          "internalType": "address",
          "name": "userToFollow",
          "type": "address"
        }
      ],
      "name": "toggleFollow",
      "outputs": [],
      "stateMutability": "nonpayable",
      "type": "function"
    }
  ],
  "bytecode": "0x608060405234801561001057600080fd5b506131b9806100206000396000f3fe608060405234801561001057600080fd5b50600436106100ea5760003560e01c806391e330851161008c578063b998332711610066578063b998332714610213578063e580339f1461021d578063f0312a3714610239578063f43c7c0114610255576100ea565b806391e33085146101bb578063a120734b146101d7578063aefedbc2146101f5576100ea565b80634f58ea8c116100c85780634f58ea8c1461014757806353256135146101635780635ffc6ceb146101815780638288e2071461019d576100ea565b806312065fe0146100ef57806336ec35aa1461010d5780634ce666661461012b575b600080fd5b6100f7610271565b6040516101049190612d1c565b60405180910390f35b6101156102b8565b6040516101229190612cda565b60405180910390f35b610145600480360381019061014091906126cd565b610387565b005b610161600480360381019061015c91906127c7565b610702565b005b61016b610a76565b6040516101789190612c7b565b60405180910390f35b61019b6004803603810190610196919061281b565b610f2a565b005b6101a56115d2565b6040516101b29190612cbf565b60405180910390f35b6101d560048036038101906101d09190612732565b611626565b005b6101df61167d565b6040516101ec9190612c9d565b60405180910390f35b6101fd6119af565b60405161020a9190612c7b565b60405180910390f35b61021b611ecd565b005b61023760048036038101906102329190612773565b611f6c565b005b610253600480360381019061024e9190612844565b6121ee565b005b61026f600480360381019061026a91906126f6565b6122f6565b005b6000600260003373ffffffffffffffffffffffffffffffffffffffff1673ffffffffffffffffffffffffffffffffffffffff16815260200190815260200160002054905090565b6060600560003373ffffffffffffffffffffffffffffffffffffffff1673ffffffffffffffffffffffffffffffffffffffff168152602001908152602001600020805461030490612fcb565b80601f016020809104026020016040519081016040528092919081815260200182805461033090612fcb565b801561037d5780601f106103525761010080835404028352916020019161037d565b820191906000526020600020905b81548152906001019060200180831161036057829003601f168201915b5050505050905090565b600080600360003373ffffffffffffffffffffffffffffffffffffffff1673ffffffffffffffffffffffffffffffffffffffff16815260200190815260200160002090506000805b8280549050811015610491578473ffffffffffffffffffffffffffffffffffffffff1683828154811061042b577f4e487b7100000000000000000000000000000000000000000000000000000000600052603260045260246000fd5b9060005260206000200160009054906101000a900473ffffffffffffffffffffffffffffffffffffffff1673ffffffffffffffffffffffffffffffffffffffff16141561047e5760019350809150610491565b80806104899061302e565b9150506103cf565b50826105355781849080600181540180825580915050600190039060005260206000200160009091909190916101000a81548173ffffffffffffffffffffffffffffffffffffffff021916908373ffffffffffffffffffffffffffffffffffffffff1602179055507fe06da1cbe3a0188be1a0c74902a78f6ed562c67538f262251470773cc1cdc0cb846040516105289190612c00565b60405180910390a16106fc565b60008190505b6001838054905061054c9190612f0d565b81101561065757826001826105619190612eb7565b81548110610598577f4e487b7100000000000000000000000000000000000000000000000000000000600052603260045260246000fd5b9060005260206000200160009054906101000a900473ffffffffffffffffffffffffffffffffffffffff168382815481106105fc577f4e487b7100000000000000000000000000000000000000000000000000000000600052603260045260246000fd5b9060005260206000200160006101000a81548173ffffffffffffffffffffffffffffffffffffffff021916908373ffffffffffffffffffffffffffffffffffffffff160217905550808061064f9061302e565b91505061053b565b508180548061068f577f4e487b7100000000000000000000000000000000000000000000000000000000600052603160045260246000fd5b6001900381819060005260206000200160006101000a81549073ffffffffffffffffffffffffffffffffffffffff021916905590557f1e60c5d290a79aa84ee8cafce921f82623e68027f2d91106c766788b797e0520846040516106f39190612c00565b60405180910390a15b50505050565b60008080549050905060008067ffffffffffffffff81111561074d577f4e487b7100000000000000000000000000000000000000000000000000000000600052604160045260246000fd5b60405190808252806020026020018201604052801561077b5781602001602082028036833780820191505090505b50905060006040518061012001604052808481526020013373ffffffffffffffffffffffffffffffffffffffff16815260200186815260200160001515815260200160011515815260200185815260200160008152602001600081526020018381525090806001815401808255809150506001900390600052602060002090600802016000909190919091506000820151816000015560208201518160010160006101000a81548173ffffffffffffffffffffffffffffffffffffffff021916908373ffffffffffffffffffffffffffffffffffffffff1602179055506040820151816002019080519060200190610874929190612463565b5060608201518160030160006101000a81548160ff02191690831515021790555060808201518160030160016101000a81548160ff02191690831515021790555060a0820151816004015560c0820151816005015560e082015181600601556101008201518160070190805190602001906108f09291906124e9565b505050336001600084815260200190815260200160002060006101000a81548173ffffffffffffffffffffffffffffffffffffffff021916908373ffffffffffffffffffffffffffffffffffffffff160217905550600160008481548110610981577f4e487b7100000000000000000000000000000000000000000000000000000000600052603260045260246000fd5b90600052602060002090600802016006015461099d9190612eb7565b600084815481106109d7577f4e487b7100000000000000000000000000000000000000000000000000000000600052603260045260246000fd5b9060005260206000209060080201600601819055507f24359b2aa9889e8898cf2908cf9cce157169a0b9ab4f7d16338dbd02a2fc54973360008581548110610a48577f4e487b7100000000000000000000000000000000000000000000000000000000600052603260045260246000fd5b906000526020600020906008020160060154604051610a68929190612c52565b60405180910390a150505050565b60606000808054905067ffffffffffffffff811115610abe577f4e487b7100000000000000000000000000000000000000000000000000000000600052604160045260246000fd5b604051908082528060200260200182016040528015610af757816020015b610ae4612573565b815260200190600190039081610adc5790505b5090506000805b600080549050811015610dfe576000151560008281548110610b49577f4e487b7100000000000000000000000000000000000000000000000000000000600052603260045260246000fd5b906000526020600020906008020160030160009054906101000a900460ff1615151415610deb5760008181548110610baa577f4e487b7100000000000000000000000000000000000000000000000000000000600052603260045260246000fd5b906000526020600020906008020160405180610120016040529081600082015481526020016001820160009054906101000a900473ffffffffffffffffffffffffffffffffffffffff1673ffffffffffffffffffffffffffffffffffffffff1673ffffffffffffffffffffffffffffffffffffffff168152602001600282018054610c3490612fcb565b80601f0160208091040260200160405190810160405280929190818152602001828054610c6090612fcb565b8015610cad5780601f10610c8257610100808354040283529160200191610cad565b820191906000526020600020905b815481529060010190602001808311610c9057829003601f168201915b505050505081526020016003820160009054906101000a900460ff161515151581526020016003820160019054906101000a900460ff1615151515815260200160048201548152602001600582015481526020016006820154815260200160078201805480602002602001604051908101604052809291908181526020018280548015610d8f57602002820191906000526020600020905b8160009054906101000a900473ffffffffffffffffffffffffffffffffffffffff1673ffffffffffffffffffffffffffffffffffffffff1681526020019060010190808311610d45575b505050505081525050838381518110610dd1577f4e487b7100000000000000000000000000000000000000000000000000000000600052603260045260246000fd5b60200260200101819052508180610de79061302e565b9250505b8080610df69061302e565b915050610afe565b5060008167ffffffffffffffff811115610e41577f4e487b7100000000000000000000000000000000000000000000000000000000600052604160045260246000fd5b604051908082528060200260200182016040528015610e7a57816020015b610e67612573565b815260200190600190039081610e5f5790505b50905060005b82811015610f2057838181518110610ec1577f4e487b7100000000000000000000000000000000000000000000000000000000600052603260045260246000fd5b6020026020010151828281518110610f02577f4e487b7100000000000000000000000000000000000000000000000000000000600052603260045260246000fd5b60200260200101819052508080610f189061302e565b915050610e80565b5080935050505090565b600080808381548110610f66577f4e487b7100000000000000000000000000000000000000000000000000000000600052603260045260246000fd5b906000526020600020906008020160070180549050905060005b818110156113ee573373ffffffffffffffffffffffffffffffffffffffff1660008581548110610fd9577f4e487b7100000000000000000000000000000000000000000000000000000000600052603260045260246000fd5b90600052602060002090600802016007018281548110611022577f4e487b7100000000000000000000000000000000000000000000000000000000600052603260045260246000fd5b9060005260206000200160009054906101000a900473ffffffffffffffffffffffffffffffffffffffff1673ffffffffffffffffffffffffffffffffffffffff1614156113db5760019250600084815481106110a7577f4e487b7100000000000000000000000000000000000000000000000000000000600052603260045260246000fd5b90600052602060002090600802016007016001836110c59190612f0d565b815481106110fc577f4e487b7100000000000000000000000000000000000000000000000000000000600052603260045260246000fd5b9060005260206000200160009054906101000a900473ffffffffffffffffffffffffffffffffffffffff1660008581548110611161577f4e487b7100000000000000000000000000000000000000000000000000000000600052603260045260246000fd5b906000526020600020906008020160070182815481106111aa577f4e487b7100000000000000000000000000000000000000000000000000000000600052603260045260246000fd5b9060005260206000200160006101000a81548173ffffffffffffffffffffffffffffffffffffffff021916908373ffffffffffffffffffffffffffffffffffffffff1602179055506000848154811061122c577f4e487b7100000000000000000000000000000000000000000000000000000000600052603260045260246000fd5b9060005260206000209060080201600701805480611273577f4e487b7100000000000000000000000000000000000000000000000000000000600052603160045260246000fd5b6001900381819060005260206000200160006101000a81549073ffffffffffffffffffffffffffffffffffffffff021916905590556001600085815481106112e4577f4e487b7100000000000000000000000000000000000000000000000000000000600052603260045260246000fd5b9060005260206000209060080201600501546113009190612f0d565b6000858154811061133a577f4e487b7100000000000000000000000000000000000000000000000000000000600052603260045260246000fd5b9060005260206000209060080201600501819055507f58fa2c3e3673ae51975694e6145cf7c0e2d38e34008b7c0489ddc738c40c6a6884600086815481106113ab577f4e487b7100000000000000000000000000000000000000000000000000000000600052603260045260246000fd5b9060005260206000209060080201600501546040516113cb929190612d60565b60405180910390a15050506115cf565b80806113e69061302e565b915050610f80565b50816115cc576000838154811061142e577f4e487b7100000000000000000000000000000000000000000000000000000000600052603260045260246000fd5b9060005260206000209060080201600701339080600181540180825580915050600190039060005260206000200160009091909190916101000a81548173ffffffffffffffffffffffffffffffffffffffff021916908373ffffffffffffffffffffffffffffffffffffffff1602179055506001600084815481106114dc577f4e487b7100000000000000000000000000000000000000000000000000000000600052603260045260246000fd5b9060005260206000209060080201600501546114f89190612eb7565b60008481548110611532577f4e487b7100000000000000000000000000000000000000000000000000000000600052603260045260246000fd5b9060005260206000209060080201600501819055507fce95d00b5d978b6c1ea0db3dea02ad6b73bd5f44eaf3626d9c7c30dedbca696683600085815481106115a3577f4e487b7100000000000000000000000000000000000000000000000000000000600052603260045260246000fd5b9060005260206000209060080201600501546040516115c3929190612d60565b60405180910390a15b50505b50565b6000600460003373ffffffffffffffffffffffffffffffffffffffff1673ffffffffffffffffffffffffffffffffffffffff16815260200190815260200160002060009054906101000a900460ff16905090565b80600560003373ffffffffffffffffffffffffffffffffffffffff1673ffffffffffffffffffffffffffffffffffffffff1681526020019081526020016000209080519060200190611679929190612463565b5050565b60606000600360003373ffffffffffffffffffffffffffffffffffffffff1673ffffffffffffffffffffffffffffffffffffffff16815260200190815260200160002080548060200260200160405190810160405280929190818152602001828054801561174057602002820191906000526020600020905b8160009054906101000a900473ffffffffffffffffffffffffffffffffffffffff1673ffffffffffffffffffffffffffffffffffffffff16815260200190600101908083116116f6575b5050505050905060008151905060008167ffffffffffffffff81111561178f577f4e487b7100000000000000000000000000000000000000000000000000000000600052604160045260246000fd5b6040519080825280602002602001820160405280156117c857816020015b6117b56125d9565b8152602001906001900390816117ad5790505b50905060005b828110156119a5576000604051806040016040528086848151811061181c577f4e487b7100000000000000000000000000000000000000000000000000000000600052603260045260246000fd5b602002602001015173ffffffffffffffffffffffffffffffffffffffff1681526020016005600088868151811061187c577f4e487b7100000000000000000000000000000000000000000000000000000000600052603260045260246000fd5b602002602001015173ffffffffffffffffffffffffffffffffffffffff1673ffffffffffffffffffffffffffffffffffffffff16815260200190815260200160002080546118c990612fcb565b80601f01602080910402602001604051908101604052809291908181526020018280546118f590612fcb565b80156119425780601f1061191757610100808354040283529160200191611942565b820191906000526020600020905b81548152906001019060200180831161192557829003601f168201915b5050505050815250905080838381518110611986577f4e487b7100000000000000000000000000000000000000000000000000000000600052603260045260246000fd5b602002602001018190525050808061199d9061302e565b9150506117ce565b5080935050505090565b60606000808054905067ffffffffffffffff8111156119f7577f4e487b7100000000000000000000000000000000000000000000000000000000600052604160045260246000fd5b604051908082528060200260200182016040528015611a3057816020015b611a1d612573565b815260200190600190039081611a155790505b5090506000805b600080549050811015611da1573373ffffffffffffffffffffffffffffffffffffffff166001600083815260200190815260200160002060009054906101000a900473ffffffffffffffffffffffffffffffffffffffff1673ffffffffffffffffffffffffffffffffffffffff16148015611b0e57506000151560008281548110611aeb577f4e487b7100000000000000000000000000000000000000000000000000000000600052603260045260246000fd5b906000526020600020906008020160030160009054906101000a900460ff161515145b15611d8e5760008181548110611b4d577f4e487b7100000000000000000000000000000000000000000000000000000000600052603260045260246000fd5b906000526020600020906008020160405180610120016040529081600082015481526020016001820160009054906101000a900473ffffffffffffffffffffffffffffffffffffffff1673ffffffffffffffffffffffffffffffffffffffff1673ffffffffffffffffffffffffffffffffffffffff168152602001600282018054611bd790612fcb565b80601f0160208091040260200160405190810160405280929190818152602001828054611c0390612fcb565b8015611c505780601f10611c2557610100808354040283529160200191611c50565b820191906000526020600020905b815481529060010190602001808311611c3357829003601f168201915b505050505081526020016003820160009054906101000a900460ff161515151581526020016003820160019054906101000a900460ff1615151515815260200160048201548152602001600582015481526020016006820154815260200160078201805480602002602001604051908101604052809291908181526020018280548015611d3257602002820191906000526020600020905b8160009054906101000a900473ffffffffffffffffffffffffffffffffffffffff1673ffffffffffffffffffffffffffffffffffffffff1681526020019060010190808311611ce8575b505050505081525050838381518110611d74577f4e487b7100000000000000000000000000000000000000000000000000000000600052603260045260246000fd5b60200260200101819052508180611d8a9061302e565b9250505b8080611d999061302e565b915050611a37565b5060008167ffffffffffffffff811115611de4577f4e487b7100000000000000000000000000000000000000000000000000000000600052604160045260246000fd5b604051908082528060200260200182016040528015611e1d57816020015b611e0a612573565b815260200190600190039081611e025790505b50905060005b82811015611ec357838181518110611e64577f4e487b7100000000000000000000000000000000000000000000000000000000600052603260045260246000fd5b6020026020010151828281518110611ea5577f4e487b7100000000000000000000000000000000000000000000000000000000600052603260045260246000fd5b60200260200101819052508080611ebb9061302e565b915050611e23565b5080935050505090565b6001600460003373ffffffffffffffffffffffffffffffffffffffff1673ffffffffffffffffffffffffffffffffffffffff16815260200190815260200160002060006101000a81548160ff0219169083151502179055506064600260003373ffffffffffffffffffffffffffffffffffffffff1673ffffffffffffffffffffffffffffffffffffffff16815260200190815260200160002081905550565b60008080549050905060008067ffffffffffffffff811115611fb7577f4e487b7100000000000000000000000000000000000000000000000000000000600052604160045260246000fd5b604051908082528060200260200182016040528015611fe55781602001602082028036833780820191505090505b50905060006040518061012001604052808481526020013373ffffffffffffffffffffffffffffffffffffffff16815260200186815260200185151581526020016000151581526020016000815260200160008152602001600081526020018381525090806001815401808255809150506001900390600052602060002090600802016000909190919091506000820151816000015560208201518160010160006101000a81548173ffffffffffffffffffffffffffffffffffffffff021916908373ffffffffffffffffffffffffffffffffffffffff16021790555060408201518160020190805190602001906120de929190612463565b5060608201518160030160006101000a81548160ff02191690831515021790555060808201518160030160016101000a81548160ff02191690831515021790555060a0820151816004015560c0820151816005015560e0820151816006015561010082015181600701908051906020019061215a9291906124e9565b505050336001600084815260200190815260200160002060006101000a81548173ffffffffffffffffffffffffffffffffffffffff021916908373ffffffffffffffffffffffffffffffffffffffff1602179055507f8b2db9b424f26463510ef5b02c16f2465836b52081b51d2112ec76102053bdea33836040516121e0929190612c52565b60405180910390a150505050565b3373ffffffffffffffffffffffffffffffffffffffff166001600084815260200190815260200160002060009054906101000a900473ffffffffffffffffffffffffffffffffffffffff1673ffffffffffffffffffffffffffffffffffffffff1614156122f2578060008381548110612290577f4e487b7100000000000000000000000000000000000000000000000000000000600052603260045260246000fd5b906000526020600020906008020160030160006101000a81548160ff0219169083151502179055507f2430f837dd2fb40e08c064be9db3d0cf2a7a21f8fe716a2a41787dafc66a7e2a82826040516122e9929190612d37565b60405180910390a15b5050565b600260003373ffffffffffffffffffffffffffffffffffffffff1673ffffffffffffffffffffffffffffffffffffffff16815260200190815260200160002054811115612378576040517f08c379a000000000000000000000000000000000000000000000000000000000815260040161236f90612cfc565b60405180910390fd5b80600260003373ffffffffffffffffffffffffffffffffffffffff1673ffffffffffffffffffffffffffffffffffffffff16815260200190815260200160002060008282546123c79190612f0d565b9250508190555080600260008473ffffffffffffffffffffffffffffffffffffffff1673ffffffffffffffffffffffffffffffffffffffff168152602001908152602001600020600082825461241d9190612eb7565b925050819055507f4a385d770df0ebc71a6366ee30873276935437dd9865f8c0e7104d97497e972833838360405161245793929190612c1b565b60405180910390a15050565b82805461246f90612fcb565b90600052602060002090601f01602090048101928261249157600085556124d8565b82601f106124aa57805160ff19168380011785556124d8565b828001600101855582156124d8579182015b828111156124d75782518255916020019190600101906124bc565b5b5090506124e59190612609565b5090565b828054828255906000526020600020908101928215612562579160200282015b828111156125615782518260006101000a81548173ffffffffffffffffffffffffffffffffffffffff021916908373ffffffffffffffffffffffffffffffffffffffff16021790555091602001919060010190612509565b5b50905061256f9190612609565b5090565b60405180610120016040528060008152602001600073ffffffffffffffffffffffffffffffffffffffff16815260200160608152602001600015158152602001600015158152602001600081526020016000815260200160008152602001606081525090565b6040518060400160405280600073ffffffffffffffffffffffffffffffffffffffff168152602001606081525090565b5b8082111561262257600081600090555060010161260a565b5090565b600061263961263484612dae565b612d89565b90508281526020810184848401111561265157600080fd5b61265c848285612f89565b509392505050565b6000813590506126738161313e565b92915050565b60008135905061268881613155565b92915050565b600082601f83011261269f57600080fd5b81356126af848260208601612626565b91505092915050565b6000813590506126c78161316c565b92915050565b6000602082840312156126df57600080fd5b60006126ed84828501612664565b91505092915050565b6000806040838503121561270957600080fd5b600061271785828601612664565b9250506020612728858286016126b8565b9150509250929050565b60006020828403121561274457600080fd5b600082013567ffffffffffffffff81111561275e57600080fd5b61276a8482850161268e565b91505092915050565b6000806040838503121561278657600080fd5b600083013567ffffffffffffffff8111156127a057600080fd5b6127ac8582860161268e565b92505060206127bd85828601612679565b9150509250929050565b600080604083850312156127da57600080fd5b600083013567ffffffffffffffff8111156127f457600080fd5b6128008582860161268e565b9250506020612811858286016126b8565b9150509250929050565b60006020828403121561282d57600080fd5b600061283b848285016126b8565b91505092915050565b6000806040838503121561285757600080fd5b6000612865858286016126b8565b925050602061287685828601612679565b9150509250929050565b600061288c83836128c0565b60208301905092915050565b60006128a48383612ad9565b905092915050565b60006128b88383612ba5565b905092915050565b6128c981612f41565b82525050565b6128d881612f41565b82525050565b60006128e982612e0f565b6128f38185612e62565b93506128fe83612ddf565b8060005b8381101561292f5781516129168882612880565b975061292183612e3b565b925050600181019050612902565b5085935050505092915050565b600061294782612e1a565b6129518185612e73565b93508360208202850161296385612def565b8060005b8581101561299f57848403895281516129808582612898565b945061298b83612e48565b925060208a01995050600181019050612967565b50829750879550505050505092915050565b60006129bc82612e25565b6129c68185612e84565b9350836020820285016129d885612dff565b8060005b85811015612a1457848403895281516129f585826128ac565b9450612a0083612e55565b925060208a019950506001810190506129dc565b50829750879550505050505092915050565b612a2f81612f53565b82525050565b612a3e81612f53565b82525050565b6000612a4f82612e30565b612a598185612e95565b9350612a69818560208601612f98565b612a7281613104565b840191505092915050565b6000612a8882612e30565b612a928185612ea6565b9350612aa2818560208601612f98565b612aab81613104565b840191505092915050565b6000612ac3601483612ea6565b9150612ace82613115565b602082019050919050565b600061012083016000830151612af26000860182612be2565b506020830151612b0560208601826128c0565b5060408301518482036040860152612b1d8282612a44565b9150506060830151612b326060860182612a26565b506080830151612b456080860182612a26565b5060a0830151612b5860a0860182612be2565b5060c0830151612b6b60c0860182612be2565b5060e0830151612b7e60e0860182612be2565b50610100830151848203610100860152612b9882826128de565b9150508091505092915050565b6000604083016000830151612bbd60008601826128c0565b5060208301518482036020860152612bd58282612a44565b9150508091505092915050565b612beb81612f7f565b82525050565b612bfa81612f7f565b82525050565b6000602082019050612c1560008301846128cf565b92915050565b6000606082019050612c3060008301866128cf565b612c3d60208301856128cf565b612c4a6040830184612bf1565b949350505050565b6000604082019050612c6760008301856128cf565b612c746020830184612bf1565b9392505050565b60006020820190508181036000830152612c95818461293c565b905092915050565b60006020820190508181036000830152612cb781846129b1565b905092915050565b6000602082019050612cd46000830184612a35565b92915050565b60006020820190508181036000830152612cf48184612a7d565b905092915050565b60006020820190508181036000830152612d1581612ab6565b9050919050565b6000602082019050612d316000830184612bf1565b92915050565b6000604082019050612d4c6000830185612bf1565b612d596020830184612a35565b9392505050565b6000604082019050612d756000830185612bf1565b612d826020830184612bf1565b9392505050565b6000612d93612da4565b9050612d9f8282612ffd565b919050565b6000604051905090565b600067ffffffffffffffff821115612dc957612dc86130d5565b5b612dd282613104565b9050602081019050919050565b6000819050602082019050919050565b6000819050602082019050919050565b6000819050602082019050919050565b600081519050919050565b600081519050919050565b600081519050919050565b600081519050919050565b6000602082019050919050565b6000602082019050919050565b6000602082019050919050565b600082825260208201905092915050565b600082825260208201905092915050565b600082825260208201905092915050565b600082825260208201905092915050565b600082825260208201905092915050565b6000612ec282612f7f565b9150612ecd83612f7f565b9250827fffffffffffffffffffffffffffffffffffffffffffffffffffffffffffffffff03821115612f0257612f01613077565b5b828201905092915050565b6000612f1882612f7f565b9150612f2383612f7f565b925082821015612f3657612f35613077565b5b828203905092915050565b6000612f4c82612f5f565b9050919050565b60008115159050919050565b600073ffffffffffffffffffffffffffffffffffffffff82169050919050565b6000819050919050565b82818337600083830152505050565b60005b83811015612fb6578082015181840152602081019050612f9b565b83811115612fc5576000848401525b50505050565b60006002820490506001821680612fe357607f821691505b60208210811415612ff757612ff66130a6565b5b50919050565b61300682613104565b810181811067ffffffffffffffff82111715613025576130246130d5565b5b80604052505050565b600061303982612f7f565b91507fffffffffffffffffffffffffffffffffffffffffffffffffffffffffffffffff82141561306c5761306b613077565b5b600182019050919050565b7f4e487b7100000000000000000000000000000000000000000000000000000000600052601160045260246000fd5b7f4e487b7100000000000000000000000000000000000000000000000000000000600052602260045260246000fd5b7f4e487b7100000000000000000000000000000000000000000000000000000000600052604160045260246000fd5b6000601f19601f8301169050919050565b7f496e73756666696369656e742062616c616e6365000000000000000000000000600082015250565b61314781612f41565b811461315257600080fd5b50565b61315e81612f53565b811461316957600080fd5b50565b61317581612f7f565b811461318057600080fd5b5056fea2646970667358221220e06bfc2854b2fa3c4082e388a65b3cfd44ad62328ed150189134257544f266c464736f6c63430008040033",
  "linkReferences": {},
  "deployedLinkReferences": {}
}